:0300000002014BAF
:03002300020100D7
:10010000C0E0C0D075D008309904C299C2003098C0
:100110000DC298E521540F2423F8A6990521D0D0CB
:10012000D0E03275985075D7E875D6FF758E15C238
:1001300000752100752200222000FDD200F59922D1
:10014000E4936006120138A380F62275815F7594EE
:100150000075930075920075910075960075950075
:1001600075B20075B10075B40075B30075CA00753D
:10017000C900120123D2ACD2AF900196120140E522
:10018000226521540F60F8E522540F2423F8E6126B
:100190000138052280E9556172742054657374201A
:0401A000210D0A0023
:00000001FF
